:020000040000FA
:060000000A128A114E29CC
:08000800FE00030E8301B600A7
:100010000A08B7008A010408BC002008B4002108BF
:10002000B5000A128A15A52A820720344E344F34AF
:100030002034503452344F34423445342034443424
:1000400045345434453443345434453444342134F1
:1000500020348207203450346C3465346134733476
:1000600065342C3420346134743474346134633432
:10007000683420346F346E3465342034820753344E
:10008000453454345534503420347C342034503486
:1000900072346F34623465342034473461346934E7
:1000A0006E343A342034820749344E34493454345F
:1000B000493441344C3449345A3449344E34473449
:1000C000203445344534503452344F344D34203488
:1000D000820743344F343734573454342034533444
:1000E000573452342F345034573452342034763409
:1000F000203431342E3430342034820720344C34D0
:100100004F3441344434203445344534503452342F
:100110004F344D3482074D346134783420345034B8
:10012000573452343A34203482071834183418348F
:10013000003400340034003400348207183418349A
:1001400018340034183418341834003482071B343F
:100150001B341B3400340034003400340034820774
:100160001B341B341B340034183418341834003456
:1001700082071B341B341B3400341B341B341B34E8
:1001800000348207503472346F34623465343A3448
:10019000203482073E3420343134303482074634F0
:1001A0003A342034820752343A34203482076D3492
:1001B000573482072034573482072034820757345B
:1001C000A9012030B8000310A90DAA0DAB0DAC0D8C
:1001D000AD0D0310A00DA10DA20DA30D031C02294E
:1001E0002408A90725080318250FAA0726080318BD
:1001F000260FAB0727080318270FAC07280803189A
:10020000280FAD07B80BE32808002830B800A50177
:10021000A601A701A801A9010310AF0DB00DB10DF2
:10022000B20DB30D0310A00DA10DA20DA30DA40DD1
:10023000A50DA60DA70DA80DA90D29082E02031DB9
:100240002F2928082D02031D2F2927082C02031D02
:100250002F2926082B02031D2F2925082A020319FE
:100260003329031846292A08A5022B08031C2B0F43
:10027000A6022C08031C2C0FA7022D08031C2D0F0F
:10028000A8022E08031C2E0FA9022F14B80B0C294C
:1002900008008A00831203133A0882006F29831230
:1002A000E400F030831606058312E8000F30640581
:1002B000E900680483168600080083120317E4002F
:1002C000F03083160313080583120317E8000F307C
:1002D0006405E90068048316031388000800031707
:1002E0000510831688018901831203139F01831669
:1002F0009F01831203178701880189018316061263
:10030000861200304F218A110A12612A83120313C8
:10031000CB004B08031908004B03031D9A298312D5
:1003200003130530A0000A128A11A00B95290000C2
:1003300000000800CB03831203130230A0000A124E
:100340008A11A00BA1294B08CC00CD01B129831241
:1003500003130930A0000A128A11A00BAD29000076
:10036000CD0A4D084C02031DA72908006408831616
:100370009000831265088316910094019501D42999
:10038000831203137330A0000530A1000A128A11F2
:10039000A10BC6290A128A11A00BC42900008316DA
:1003A0000317940A0319950A140810028312031301
:1003B000A0008316031715081102831203132004EB
:1003C000031DC02908006808EE006908EF008316C5
:1003D00096019701052A831203136E30A000CB30DB
:1003E000A1000230A2000A128A11A20BF3290A12FC
:1003F0008A11A10BF1290A128A11A00BEF29000022
:1004000083160317960A0319970A160883126E02B9
:100410000313A00083160317170883126F02031338
:100420002004031DEB29080083120313CA004A1895
:100430001B2A7C101C2A7C147C088600CA18222ADD
:10044000FC10232AFC147C0886004A19292A7C11F6
:100450002A2A7C157C088600CA19302AFC11312A08
:10046000FC157C0886007C167C08860000000000D5
:10047000000000007C127C08860008008312031331
:10048000C800480E0F39C90014228312031348080C
:100490008A110A12142204308A110A128629831240
:1004A0000313C700FC167C08860047083E2A831603
:1004B0000317B100FC127C088312860083163108F2
:1004C0003E2A83120313BD011D2B96000230160233
:1004D00003196C2A031C6D2A9601160803190034AF
:1004E0001603031940340230160203191434033082
:1004F00016020319543408008030831203133D049C
:1005000083160317AD00572A831203132008C60071
:100510008A110A124F2A8316900065228316031748
:10052000940083126E070313BD008A110A127C2AFD
:1005300001305722B4308A110A128629E4000730AC
:100540006405831696000310160D97000310970D8F
:100550000310970D40301704980057228312031799
:1005600068088316A300083023028A110A120319AF
:10057000BD2A031CBD2A0830A3002308A900A70137
:10058000D72A83126F080313BB00831603172708AB
:1005900083126E070313BA000318BB0A3B133B0810
:1005A00049218A110A124F2283160317A70A270826
:1005B00029028A110A12031DC12A7C2AFC127C0816
:1005C000860019300317E400E501B62103308A11D3
:1005D0000A121422053083120317E400E5018A1180
:1005E0000A12B62103308A110A1214220A308A1123
:1005F0000A12862103308A110A12142204308A1149
:100600000A12862102308A110A12142204308A1139
:100610000A12862128308A110A1257221C308A11A8
:100620000A1257220C308A110A12572206308A11F8
:100630000A1257228A110A12982ADE22FF308A11E2
:100640000A125D2183160313081288160813083056
:1006500083120317E800E9019530EE0000304038BE
:10066000EF0001308A110A129E220830831203170C
:10067000E800E9019E30EE0000304038EF00023023
:100680008A110A129E22083083120317E800E9013A
:10069000A730EE0000304038EF0003308A110A1214
:1006A0009E22083083120317E800E901B030EE0003
:1006B00000304038EF0004308A110A129E220830C0
:1006C00083120317E800E901B930EE00003040382A
:1006D000EF0005308A110A129E228A110A12AE2BEF
:1006E0002D08BD002E08BE003D08C1003E08C20016
:1006F000C0019E2B83160317370883120313BB0018
:10070000831603174008360783120313BA00031831
:10071000BB0A3B133B08492183120313A000831635
:100720000317270883120313BA0083160317280838
:100730008A110A12492183160317C00A4008410290
:1007400083120313A00083160317420883120313B6
:1007500020048A110A12031D7A2B08008312031742
:1007600051108A152C298312511CC52B0313A0018B
:1007700083160317490883120313BA00831603175D
:100780004A0849218312031751100A3003134F02FC
:100790008A110A120319E32B0318E32B30304F0799
:1007A00083160317CB0083120313A00083160317CD
:1007B000490883120313BA00831603174A08492114
:1007C0008A110A12F82B41304F0783160317CB000A
:1007D0000A304B02CC0083120313A00083160317C8
:1007E000490883120313BA00831603174A084921E4
:1007F000303083120313CE000800C70083120313A6
:10080000CF0083160317481C1A2C4508C900460858
:10081000CA00B3232E3083120313A00083160317DC
:10082000450883120313BA008316031746088A117A
:100830000A124929831203134F08031D2B2C4E085B
:10084000A00083160317450883120313BA0083160A
:10085000031746084929831603174508C9004608A7
:10086000CA00B32B83169000203083120313CE00EE
:10087000033003176E0203193F2C031C712C6430E4
:100880000313AA00AB01AC01AD01AE01831603173F
:10089000100883120313A000A101A201A301A40167
:1008A0000521831203132F08831603179600831262
:1008B00003132508831603179000023014029910C1
:1008C00003199914831264088316C50083126508FE
:1008D0008316C60048109918481416088A110A127F
:1008E000FD230230831203176E028A110A120319C4
:1008F0007B2C031CAC2C0A300313AA00AB01AC0107
:10090000AD01AE0183160317100883120313A00074
:10091000A101A201A301A4010521831203132F0841
:1009200083160317960083120313250883160317F3
:100930009000140399110319991583126408831602
:10094000C500831265088316C6004810991948141B
:1009500016088A110A12FD23831603171008831242
:100960000313CF00031764088316C90083126508B8
:100970008316CA008A110A12B32B99002030831201
:100980000313CE0005308316031719020319CA2C6E
:10099000031C052D103083120313AA002730AB006F
:1009A000AC01AD01AE0183160317140883120313C3
:1009B000A00083160317150883120313A100A201D8
:1009C000A301A4010521831203132F088316031723
:1009D000A3008312031325088316031794008312C0
:1009E0000313260883160317950004302102A7106D
:1009F0000319A7141008C5001108C6004810A7184D
:100A0000481423088A110A12FD23043083160317A1
:100A100019028A110A1203190F2D031C4A2DE830FE
:100A200083120313AA000330AB00AC01AD01AE0189
:100A300083160317140883120313A00083160317E9
:100A4000150883120313A100A201A301A40105212B
:100A5000831203132F0883160317A30083120313B3
:100A600025088316031794008312031326088316A0
:100A70000317950003302102A7110319A7151008C9
:100A8000C5001108C6004810A719481423088A1188
:100A90000A12FD2303308316031719028A110A1262
:100AA0000319542D031C8E2D643083120313AA00E6
:100AB000AB01AC01AD01AE0183160317140883121C
:100AC0000313A00083160317150883120313A10054
:100AD000A201A301A4010521831203132F08831689
:100AE0000317A3008312031325088316031794002A
:100AF0008312031326088316031795000230210280
:100B0000A7120319A7161008C5001108C60048103F
:100B1000A71A481423088A110A12FD2302308316EB
:100B2000031719028A110A120319982D031CD12DDB
:100B30000A3083120313AA00AB01AC01AD01AE0170
:100B400083160317140883120313A00083160317D8
:100B5000150883120313A100A201A301A40105211A
:100B6000831203132F0883160317A30083120313A2
:100B7000250883160317940083120313260883168F
:100B8000031795002103A7130319A7171008C50021
:100B90001108C6004810A71B481423088A110A121E
:100BA000FD2383160317140883120313CF00831643
:100BB00003171008C9001108CA008A110A12B32BC2
:100BC000BD00203083120313CE000A3083160317B2
:100BD0003D020319ED2D031C3F2E83120313AA01BE
:100BE000CA30AB009A30AC003B30AD00AE0183168A
:100BF00003172D0883120313A000831603172E0872
:100C000083120313A100831603172F088312031303
:100C1000A20083160317300883120313A300A40154
:100C20000521831203132F0883160317C0008312B4
:100C30000313250883160317AD0083120313260838
:100C400083160317AE0083120313270883160317B6
:100C5000AF0083120313280883160317B00009306E
:100C60003F02C1100319C1142708C5002808C60097
:100C70004810C118481440088A110A12FD2309308F
:100C8000831603173D028A110A120319492E031C09
:100C90009B2E83120313AA01E130AB00F530AC00A8
:100CA0000530AD00AE01831603172D088312031320
:100CB000A000831603172E0883120313A1008316C6
:100CC00003172F0883120313A2008316031730089B
:100CD00083120313A300A4010521831203132F0819
:100CE00083160317C0008312031325088316031706
:100CF000AD0083120313260883160317AE00831278
:100D00000313270883160317AF0083120313280861
:100D100083160317B00008303F02C1110319C11533
:100D20002708C5002808C6004810C1194814400803
:100D30008A110A12FD230830831603173D028A1117
:100D40000A120319A52E031CF72E803083120313F9
:100D5000AA009630AB009830AC00AD01AE0183160E
:100D600003172D0883120313A000831603172E0800
:100D700083120313A100831603172F088312031392
:100D8000A20083160317300883120313A300A401E3
:100D90000521831203132F0883160317C000831243
:100DA0000313250883160317AD00831203132608C7
:100DB00083160317AE008312031327088316031745
:100DC000AF0083120313280883160317B0000730FF
:100DD0003F02C1120319C1162708C5002808C60022
:100DE0004810C11A481440088A110A12FD2307301E
:100DF000831603173D028A110A120319012F031CDF
:100E0000532F403083120313AA004230AB000F303F
:100E1000AC00AD01AE01831603172D088312031336
:100E2000A000831603172E0883120313A100831654
:100E300003172F0883120313A20083160317300829
:100E400083120313A300A4010521831203132F08A7
:100E500083160317C0008312031325088316031794
:100E6000AD0083120313260883160317AE00831206
:100E70000313270883160317AF00831203132808F0
:100E800083160317B00006303F02C1130319C117C0
:100E90002708C5002808C6004810C11B4814400890
:100EA0008A110A12FD230630831603173D028A11A8
:100EB0000A1203195D2F031CAF2FA03083120313F6
:100EC000AA008630AB000130AC00AD01AE01831644
:100ED00003172D0883120313A000831603172E088F
:100EE00083120313A100831603172F088312031321
:100EF000A20083160317300883120313A300A40172
:100F00000521831203132F0883160317C0008312D1
:100F10000313250883160317AD0083120313260855
:100F200083160317AE0083120313270883160317D3
:100F3000AF0083120313280883160317B00005308F
:100F40003F02C2100319C2142708C5002808C600B2
:100F50004810C218481440088A110A12FD230530AF
:100F6000831603173D028A110A120319BA2F8A1534
:100F7000031C0C28103083120313AA002730AB0087
:100F8000AC01AD01AE01831603172D0883120313C4
:100F9000A000831603172E0883120313A1008316E3
:100FA00003172F0883120313A200831603173008B8
:100FB00083120313A300A4018A11052183120313D2
:100FC0002F0883160317C000831203132508831606
:100FD0000317AD0083120313260883160317AE0010
:100FE00083120313270883160317AF00831203131A
:100FF000280883160317B00004303F02C2110319FA
:10100000C2152708C5002808C6004810C219481490
:1010100040088A110A12FD230430831603173D028B
:101020008A150A1203191628031C6828E83083124F
:101030000313AA000330AB00AC01AD01AE0183166F
:1010400003172D0883120313A000831603172E081D
:1010500083120313A100831603172F0883120313AF
:10106000A20083160317300883120313A300A40100
:101070008A110521831203132F0883160317C0005A
:1010800083120313250883160317AD00831203137D
:10109000260883160317AE0083120313270883164E
:1010A0000317AF0083120313280883160317B00039
:1010B00003303F02C2120319C2162708C5002808D0
:1010C000C6004810C21A481440088A110A12FD23AB
:1010D0000330831603173D028A150A12031972287A
:1010E000031CC328643083120313AA00AB01AC01B4
:1010F000AD01AE01831603172D0883120313A00060
:10110000831603172E0883120313A10083160317F7
:101110002F0883120313A2008316031730088312CB
:101120000313A300A4018A110521831203132F08BE
:1011300083160317C00083120313250883160317B1
:10114000AD0083120313260883160317AE00831223
:101150000313270883160317AF008312031328080D
:1011600083160317B00002303F02C2130319C217DF
:101170002708C5002808C6004810C21B48144008AC
:101180008A110A12FD230230831603173D028A15C5
:101190000A120319CD28031C1D290A3083120313D8
:1011A000AA00AB01AC01AD01AE01831603172D08F7
:1011B00083120313A000831603172E088312031350
:1011C000A100831603172F0883120313A2008316AE
:1011D0000317300883120313A300A4018A11052109
:1011E000831203132F0883160317C00083120313FF
:1011F000250883160317AD008312031326088316F0
:101200000317AE0083120313270883160317AF00DA
:1012100083120313280883160317B0003F03C3107B
:101220000319C3142708C5002808C6004810C318AE
:10123000481440088A110A12FD23831603172D084B
:1012400083120313CF00831603172708C900280849
:10125000CA008A110A12B32B8316880189018312EE
:1012600003139F0183169F018312031787018801CF
:101270008901152A080083120317E4006408031D7E
:1012800045298316081403130514831203176403F6
:10129000031D4E298316881403138514023083120C
:1012A00003176402031D5829831608150313051537
:1012B0000330831203176402031D62298316881505
:1012C000031385150430831203176402031D6C2970
:1012D000831608160313851605308312031764025C
:1012E000031D76298316881603130914063083120A
:1012F00003176402031D802983160817031389143A
:101300000730831203176402031D8A298316881786
:10131000031309150830831203176402031D932970
:10132000831609140615093083126402031D9B29D4
:101330008316891486150A3083126402031DA329BB
:101340008316091586140B3083126402031DAB2922
:101350008316891506160C3083126402031DB32907
:101360008316091606140D3083126402031DBB296F
:101370008316891686160800AD003818C229031393
:101380009F13C42903139F1703172D0D83120313F3
:10139000A000A00D3C30A005C3301F0520049F0015
:1013A0001F1451088A118621831203139F148A1572
:1013B0000A129F1CDC29D7291E0883160317B200C6
:1013C00003131E080317B1002630831203135002C3
:1013D0000319EC29031CF729831203138D30A00095
:1013E0000A128A15A00BF22900000000012A8312BC
:1013F00003132430A0000A128A15A00BFD29000057
:1014000000001F1083160317310883120313A00076
:1014100083160317320883120313A10008008316F2
:101420000317A30038142308BC29D301530E031358
:10143000A0003030A005CF3083161F058312200492
:1014400083169F00103083120317D300D401163087
:10145000D300D4013F3003131F0580389F000317CA
:1014600053080313D0001530D10000303B21013068
:101470008A150A123B2102308A150A123B218A156D
:101480000A12E92AE400023064020319492A031C03
:101490004A2A08008B120310640DEE0054306E07C8
:1014A0008400831368088000840A690880008B1612
:1014B000080083120317E400023064020319622A51
:1014C000031C652A0313201408000310640DE800B0
:1014D00054306807840083130008840A0004031D45
:1014E000802A0310640DE9005430690784008313D7
:1014F0000008840A0004031D802A03132014080036
:10150000031320100800F83083160105033881000A
:10151000203083120313D8008316811281110B111E
:101520008B168B1783120317E4010310640DE80078
:1015300054306807840083138001840A8001E40A20
:1015400002306402031D952A08000B1DDC2A58088E
:101550008100D20A0319D30AC3010310430DC0004E
:1015600054304007840083130008840A00040319E0
:10157000D62A0310430DC1000310430DC20054309E
:101580004207840083130008A000840A0008A10019
:101590005530410784008313210880008403013003
:1015A000200280000130840A031C8002C30A02303A
:1015B0004302031DAD2A0B113408A0003508A10019
:1015C0003C08840037088A00360E8300FE0E7E0E2B
:1015D000090083228A150A12A72BE41003156E1C3A
:1015E000F42A641CF52AF62A64180311031DFC2A48
:1015F00003306404E500072BE5036508031D072B92
:1016000064106E18641403306404E500E4140330BD
:101610006405831690000800E41065080319122B76
:10162000E503232B03156E1C182B641C192B1A2B96
:10163000641803110319232B64106E186414E41446
:1016400003306404E500033064058316900008004D
:101650001908A7001A08A8008C1C2F2B2C2B270870
:1016600083128D008316280883128F0083168C1333
:101670000C1483120C088316A30008008316B10013
:101680002908B8002A08B9008C1C472B442B3808BD
:1016900083128D008316390883128F0083168C13F2
:1016A000310883128C0083160C1536108B1B3614F0
:1016B0008B1355308D00AA308D008C143618622B98
:1016C0008B13632B8B170C1108006408831694008E
:1016D00083126508831695001408990015089A006E
:1016E00028238316031790000130831264078316A2
:1016F00094000030031801308312650783169500AB
:101700001408990015089A008A150A1228238316CE
:101710000317910008001408A3001508A40023086B
:10172000A9002408AA0019083E23013083160317D4
:101730001407A3000030031801301507A400230884
:10174000A9002408AA001A088A150A123E2B83163B
:10175000031307118312BE010130BF00DB2B0317F7
:10176000E4000313BE010130BF003E038316920064
:10177000831203176403031DC22BFC30031392056D
:101780001215080004306402031DCD2BFC30031336
:101790001205013892001215080010306402031D72
:1017A000D82BFC30031312050238920012150800E2
:1017B000031312110800D901DA01A12CF030031330
:1017C0005A050C38DA00590895005A0897000800A5
:1017D000F03083120313DA055A089700080003302B
:1017E0003902031DF52BFF3038020319FD2B031CB2
:1017F000FD2BFF30B8000330B9000310390C831201
:101800000313A10083160317380C83120313A000DF
:101810000310A10CA00C2008D90003308316031775
:10182000380583120313A000200EA1003030A1055B
:10183000CF305A052104DA00DE2B10081104031DF5
:10184000242C940195019A2C03301102031D2A2C9B
:10185000FF30100203193E2C031C3E2C831203138D
:101860003F08831603179500831203133E03831664
:1018700003179400140A031995039A2C1008990071
:1018800011089A009B019C01831203133E08A000DB
:101890003F08A100A201A3018316031719088312B0
:1018A0000313A400831603171A0883120313A50059
:1018B000831603171B0883120313A600831603174E
:1018C0001C0883120313A700A8018A11E0208312C9
:1018D00003132908831603179D00831203132A0894
:1018E000831603179E00831203132B088316031716
:1018F0009F00831203132C0883160317A0001E08F1
:1019000083120313A000831603171F088312031307
:10191000A10083160317200883120313A200A3015A
:1019200020088316031794008312031321088316DB
:10193000031795001408B8001508B9008A150A1293
:10194000EF2BDB01AA2CF03083120313DB055B08BD
:101950009D0008000130AF238A150A12E8238A157A
:101960000A12A3248A150A12F92C83160317871565
:10197000031318151E3099009A01080083160313EB
:10198000980183129801B524831603138C120C124C
:101990008717071798168312981718160800C5009E
:1019A0000C1AD32CD02C45089900080003138C1E68
:1019B000DF2C1A080317E40003138C12E22C031720
:1019C0006810E82C981CE62C1812181603176814D7
:1019D0006818ED2C03132010EF2C031320140317A9
:1019E00064080800831203132008C4008A150A1231
:1019F000CF2CBE2483120313DC01DD01DE01DF01E5
:101A0000E001E101E201E301E401E501E601E701B2
:101A1000E801E901EA01EB01EC01ED01EE01EF0162
:101A2000F001F101F201F3010317AC01AD01053042
:101A3000F800B2012030B3000330B400A630B50086
:101A40004030B6000130B700B8010130B900BA012A
:101A50000130BB00BC010130BD00BE010130BF0040
:101A6000C001C101C301C401D11451111830D30008
:101A700003305304D4005308C5005408C600450879
:101A8000C7004608C8001830D30003305304D40000
:101A90005308C5005408C6004508C9004608CA00D6
:101AA0001830D30003305304D4005308C500540841
:101AB000C6004508CB004608CC001830D3000330E0
:101AC0005304D4005308C5005408C6004508CD008F
:101AD0004608CE001830D30003305304D400530816
:101AE000C5005408C6004508CF004608D0008A113A
:101AF0000A16DB2F24082A02031D802D2308290241
:101B00000319972D0318972D2A082402B2002908DB
:101B10002302B100031CB203310883120313A00097
:101B200083160317320883120313A10008008312DF
:101B30000313A001A10108002308A9002408AA009A
:101B4000AB01AC01290883120313A000831603170D
:101B50002A0883120313A100831603172B0883128C
:101B60000313A200831603172C0883120313A30088
:101B70001830A4001330A500A601A701A8018A11FE
:101B8000E02083120313290883160317B800831279
:101B900003132A0883160317B900831203132B08B3
:101BA00083160317BA00831203132C088316031736
:101BB000BB00E83083120313AA000330AB00AC0172
:101BC000AD01AE0183160317380883120313A0007A
:101BD00083160317390883120313A1008316031712
:101BE0003A0883120313A200831603173B088312DB
:101BF0000313A300A4018A110A12052183120313FF
:101C00002F0883160317A9008312031330088316C5
:101C10000317AA0083120313310883160317AB00BE
:101C200083120313320883160317AC0003108312C8
:101C3000410D8316B800353038078400831700083B
:101C400083120313A000840A0008A100A201A301CB
:101C500083160317290883120313A400831603179E
:101C60002A0883120313A500831603172B08831277
:101C70000313A600831603172C0883120313A7006F
:101C8000A8018A110A12E02083120313290883167F
:101C90000317B900831203132A0883160317BA0027
:101CA000831203132B0883160317BB00831203133D
:101CB0002C0883160317BC00E83083120313AA0014
:101CC0000330AB00AC01AD01AE0183160317390838
:101CD00083120313A000831603173A088312031319
:101CE000A100831603173B0883120313A200831677
:101CF00003173C0883120313A300A4018A110A12DC
:101D00000521831203132F0883160317A9008312DA
:101D10000313300883160317AA0083120313310834
:101D200083160317AB0083120313320883160317BD
:101D3000AC00290883120313A000831603172A0896
:101D400083120313A100831603172B0883120313B6
:101D5000A200831603172C0883120313A3000800A4
:101D60002308B1002408B2002508B3002608B400F7
:101D7000B501230883120313A00083160317240858
:101D800083120313A100831603172508831203137C
:101D9000A20083160317260883120313A3008316D9
:101DA0000317310883120313A400831603173208A4
:101DB00083120313A500831603173308831203133A
:101DC000A60083160317340883120313A700831693
:101DD0000317350883120313A8008A11E020831229
:101DE0000313290883160317B100831203132A086B
:101DF00083160317B200831203132B0883160317ED
:101E0000B300831203132C0883160317B400831244
:101E100003132D0883160317B500503083120313E4
:101E2000AA00C330AB00AC01AD01AE0183160317AD
:101E3000310883120313A00083160317320883129C
:101E40000313A10083160317330883120313A200A0
:101E500083160317340883120313A3008316031792
:101E6000350883120313A4008A110A120521831274
:101E700003132F0883160317B100831203133008CE
:101E800083160317B2008312031331088316031756
:101E9000B30083120313320883160317B4008312AE
:101EA0000313330883160317B50031088312031395
:101EB000A00083160317320883120313A1008316B0
:101EC0000317330883120313A20083160317340881
:101ED00083120313A3000800003003136702031DDD
:101EE0007B2F00306602031D7B2F00306502031D2F
:101EF0007B2F643064020319872F0318872F643007
:101F000083160317A300A4018A110A16CF2803170A
:101F1000320803198E2F3203031DE22F1C0883168B
:101F2000B80083121D088316B90083121E08831699
:101F3000BA0083121F088316BB0083122008831681
:101F4000B80783122108FF00831603187F0FB90713
:101F500083122208FF00831603187F0FBA0783122B
:101F60002308FF00831603187F0FBB0783121C088A
:101F70008316C10083121D088316C20083121E0837
:101F80008316C30083121F088316C400831220081F
:101F90008316C10283122108FF008316031C7F0FE2
:101FA000C20283122208FF008316031C7F0FC302A4
:101FB00083122308FF008316031C7F0FC4028A11BB
:101FC0000A165928023032028A110A16031D5928AE
:101FD0000313640883160317B800831203136508FC
:101FE00083160317B90083120313660883160317B9
:101FF000BA0083120313670883160317BB0083120A
:102000000313680883160317B807831203136908BC
:10201000FF008316031703187F0FB90783120313FA
:102020006A08FF008316031703187F0FBA0783128D
:1020300003136B08FF008316031703187F0FBB07FA
:1020400083120313640883160317C100831203135A
:10205000650883160317C2008312031366088316EC
:102060000317C30083120313670883160317C40002
:1020700083120313680883160317C1028312031324
:102080006908FF0083160317031C7F0FC202831227
:1020900003136A08FF0083160317031C7F0FC30294
:1020A000831203136B08FF0083160317031C7F0FB3
:1020B000C4028316380883120313A0008316031783
:1020C000390883120313A100831603173A088312F9
:1020D0000313A200831603173B0883120313A30004
:1020E0006430A400A501A601A701A8010A12E020FE
:1020F00083120313290883160317A90083120313FD
:102100002A0883160317AA00831203132B088316C9
:102110000317AB00831203132C0883160317AC00BC
:10212000410883120313AA0083160317420883127F
:102130000313AB0083160317430883120313AC0089
:1021400083160317440883120313AD00AE018316F0
:102150000317290883120313A000831603172A0804
:1021600083120313A100831603172B088312031392
:10217000A200831603172C0883120313A300A401E3
:102180008A110A120521831203132F0883160317DD
:10219000A30083120313300883160317A400230837
:1021A00083120313A000831603172408831203135A
:1021B000A100080099010130A100A2010030130222
:1021C000031DEC2800301202031DEC28033011021D
:1021D000031DEC28DE3010020319F528031CF52836
:1021E000023099000A30A100A20100301302031D41
:1021F000032900301202031D032926301102031D9A
:102200000329AC30100203190C29031C0C290130DE
:1022100099006430A100A20100301302031D1A29A5
:1022200001301202031D1A2986301102031D1A29DA
:102230003C30100203192329031C23299901E8309B
:10224000A1000330A200210883120313AA00831601
:102250000317220883120313AB00AC01AD01AE01DA
:1022600083160317100883120313A00083160317A5
:10227000110883120313A100831603171208831297
:102280000313A20083160317130883120313A3007A
:10229000A4010A120521831203132F0883160317C2
:1022A00090008312031330088316031791008312E2
:1022B00003133108831603179200831203133208A5
:1022C0008316031793008430A7000230A80010087B
:1022D000AD001108AE001208AF001308B0001908D5
:1022E000BF0003308A110A12E02583160317210369
:1022F00022048A110A16031D8B298430A70002309C
:10230000A8000230AD00AE01D730B6000030403832
:10231000B7000A12702B1908031D9C298430A700EE
:102320000230A8000130AD00AE01DD30B600003053
:102330004038B7000A127023843083160317A700B1
:102340000230A8000130AD00AE01DF30B600003031
:102350004038B7008A110A12702B05308312031718
:102360004102641003196414E410D11CE4146415D0
:102370006418E41C6411641DF029D1140A12982217
:1023800083120317EE0100308A110A128B22843067
:1023900083160317A7000230A8001430AD00AE0169
:1023A0001530B60000304038B7008A110A12702389
:1023B00083120317EE0101308A110A128B22843036
:1023C00083160317A7000230A8001430AD00AE0139
:1023D0002A30B60000304038B7008A110A12702B3C
:1023E0000530410203190800EE0100300A128B2269
:1023F0000330831203172D028A110A16031D022AC5
:10240000E7302C020319182A031C182A843083167B
:10241000A7000230A8000430AD00AE01CA30B600FB
:1024200000304038B7000A1270238A110A162A2A8F
:102430008430831690000230910083122C0883169A
:10244000940083122D08831695000230A1000330FA
:102450000A12BD2483120317EE0101308A110A12F9
:102460008B228312031732088A110A16031D402A91
:1024700050300313A0000A1284228A110A16542A2B
:102480003203031D4B2A52300313A0000A12842288
:102490008A110A16542A02303202031D542A53307C
:1024A0000313A0000A128422203083120313A00019
:1024B0008A110A128422843083160317A70002307F
:1024C000A8000330AD00AE01CF30B6000030403878
:1024D000B7008A110A1270238312031732088A1177
:1024E0000A16031D862A24088316900083122508E5
:1024F0008316910083122608831692008312270800
:1025000083169300DA208A110A16B02A3203031DBB
:102510009C2A1408831690008312150883169100D4
:1025200083121608831692008312170883169300ED
:10253000DA208A110A16B02A02303202031DB02AAC
:1025400024088316900083122508831691008312B5
:102550002608831692008312270883169300DA2038
:10256000203083120313A0008A110A1284228430BF
:1025700083160317A7000230A8000330AD00AE0198
:10258000D330B60000304038B7008A110A127023E9
:102590008312031732088A110A16031DDF2A28083E
:1025A00083169000831229088316910083122A084B
:1025B0008316920083122B0883169300DA283203C5
:1025C000031DF22A18088316900083121908831637
:1025D000910083121A088316920083121B08831637
:1025E0009300DA2802303202031D062B28088316D6
:1025F0009000831229088316910083122A088316FB
:10260000920083122B0883169300DA28080000300A
:102610008A150A120F22831203132008E0002108F2
:10262000E10001308A150A120F22831203132008D9
:10263000E2002108E300600883160317A300831259
:102640000313610883160317A400831203135C08A5
:1026500083160317A900831203135D08831603175B
:10266000AA008A150A127A25831203132008E400AF
:102670002108E500E601E701640883160317A300BB
:1026800083120313650883160317A4008A150A1220
:102690009C25831203132008E4002108E50022088A
:1026A000E6002308E700620883160317A3008312DD
:1026B0000313630883160317A400831203135E0831
:1026C00083160317A900831203135F0883160317E9
:1026D000AA008A150A127A25831203132008E8003B
:1026E0002108E900EA01EB01680883160317A3003B
:1026F00083120313690883160317A4008A150A12AC
:102700009C25831203132008E8002108E900220811
:10271000EA002308EB000317E401E501E601E70105
:10272000C2010313640803179C0003136508031711
:102730009D000313660803179E0003136708031721
:102740009F00031364080317E400031365080317CD
:10275000E500031366080317E60003136708031771
:10276000E7008316940103108312420D831696002E
:102770000310960D8312420A831697000310170D5B
:1027800098000310980DA0301807840083130008E8
:1027900083120313A000840A0008A100840A000821
:1027A000A200840A0008A300A030831603171607AE
:1027B000840083138312031320088000840A2108F5
:1027C0008000840A22088000840A23088000031005
:1027D0000317420D831696000310960DA3301607BB
:1027E00084008313000883121F028A110A16031D36
:1027F000062C840300081E02031D062C8403000817
:102800001D02031D062C840300081C020319202C42
:102810000318202C0310420D831697000310970D08
:10282000A030170784008313000883129C00840AD9
:1028300000089D00840A00089E00840A00089F008A
:102840000310420D831696000310960DA030160754
:102850008400831300088312E407840A0008031825
:10286000000FE507840A00080318000FE607840A32
:1028700000080318000FE707C20A8316940A0930FC
:102880001402031DB32B8312031364088316C400C0
:10289000831265088316C500831266088316C60076
:1028A000831267088316C7000A308312AA00AB019F
:1028B000AC01AD01AE01031764080313A0000317B8
:1028C00065080313A100031766080313A20003178A
:1028D00067080313A300A4010A120521831203133E
:1028E0002F08F4003008F5003108F6003208F70030
:1028F0000317E401E501E601E701C20103136808DB
:102900000317A000031369080317A10003136A0843
:102910000317A20003136B080317A300031368082F
:102920000317E400031369080317E50003136A089B
:102930000317E60003136B080317E70083169401DF
:1029400003108312420D831696000310960D831216
:10295000420A831697000310170D98000310980D74
:10296000C830180784008313000883120313A000E3
:10297000840A0008A100840A0008A200840A000852
:10298000A300C8308316031716078400831383122D
:10299000031320088000840A21088000840A22088A
:1029A0008000840A2308800003100317420D831659
:1029B00096000310960DCB30160784008313000891
:1029C000831223028A110A16031DF32C84030008C4
:1029D0002202031DF32C840300082102031DF32CA3
:1029E00084030008200203190D2D03180D2D031078
:1029F000420D831697000310970DC8301707840007
:102A0000831300088312A000840A0008A100840A2E
:102A10000008A200840A0008A3000310420D8316D8
:102A200096000310960DC830160784008313000823
:102A30008312E407840A00080318000FE507840ADC
:102A400000080318000FE607840A00080318000FA7
:102A5000E707C20A8316940A09301402031DA02C4A
:102A60008312031368088316EC0083126908831627
:102A7000ED0083126A088316EE0083126B0883163A
:102A8000EF000A308312AA00AB01AC01AD01AE0128
:102A9000031764080313A000031765080313A100BC
:102AA000031766080313A200031767080313A300A4
:102AB000A4010A120521831203132F0803179000A3
:102AC0000313300803179100031331080317920012
:102AD00003133208031793000313640883160317C4
:102AE000A30083120313650883160317A40083123F
:102AF0000313660883160317A500831203136708E0
:102B000083160317A6008A150A12B0268312031330
:102B10002008EC002108ED002208EE002308EF0059
:102B2000680883160317A30083120313690883162A
:102B30000317A400831203136A0883160317A50062
:102B4000831203136B0883160317A6008A150A1253
:102B5000B026831203132008F0002108F100220898
:102B6000F2002308F300740883160317A300750806
:102B7000A4007608A5007708A6008A150A12B026D8
:102B8000831203132008031794000313210803176B
:102B90009500031322080317960003132308031755
:102BA000970010088316A300831211088316A4004F
:102BB000831212088316A500831213088316A60039
:102BC0008A150A12B02683120313200803179800EF
:102BD00003132108031799000313220803179A000F
:102BE0000313230803179B001C088316A3008312FA
:102BF0001D088316A40083121E088316A5008312E5
:102C00001F088316A6008A150A12B0268312031322
:102C100020080317A400031321080317A5000313BA
:102C200022080317A600031323080317A700200890
:102C30008316A300831221088316A400831222089E
:102C40008316A500831223088316A6008A150A128C
:102C5000B0268312031320080317A80003132108CA
:102C60000317A900031322080317AA00031323085C
:102C70000317AB008A150A126C278312031320086E
:102C80000317AC00031321080317AD0008008312DB
:102C900003135C090317E80003135D090317E90038
:102CA0000430E90768088316A300831269088316B5
:102CB000A4008A150A129C25831203132008031707
:102CC000EA00031321080317EB000313220803177C
:102CD000EC00031323080317ED006A088316A30012
:102CE00083126B088316A40083126C088316A50058
:102CF00083126D088316A6008A150A12B026831265
:102D0000031320080317AE00031321080317AF00B5
:102D1000031322080317B000031323080317B1009D
:102D200084308316A7000230A8000930AD00AE0140
:102D30008B30B60000304038B7008A110A12702379
:102D4000643083120313AA00AB01AC01AD01AE01E4
:102D500003172E080313A00003172F080313A10065
:102D6000031730080313A200031731080313A3004D
:102D7000A4018A110A120521831203132F080317D5
:102D8000E800031330080317E900031331080317A1
:102D9000EA00031332080317EB0084308316A70000
:102DA0000230A800831268088316AD0083126908F8
:102DB0008316AE0083126A088316AF0083126B0875
:102DC0008316B0000130BF0004308A110A12E025DA
:102DD000843083160317A7000230A8000230AD002C
:102DE000AE01DA30B60000304038B7008A110A125E
:102DF000702B03100317410DE4000310E40D640A67
:102E00008316900091011008A9001108AA008312EE
:102E100032088A150A123E2383120317410AE4007E
:102E20000310410DE50064088316940095013530C8
:102E30008312650784008317000883169900840AAB
:102E400000089A008A150A128B2B02308A150A1282
:102E50000F228312031320080317E4000313210831
:102E60000317E500C8300313AA00AB01AC01AD01A4
:102E7000AE01031764080313A000031765080313CA
:102E8000A100A201A301A4018A110A120521831243
:102E900003132F080317C200053042028A110A16D5
:102EA0000319552F0318552FD110420808000A1294
:102EB000982283120317EE0100308A110A128B2226
:102EC000843083160317A7000230A8001430AD0029
:102ED000AE016930B60000304038B7008A110A12DE
:102EE000702383120317C2010310420DE400031084
:102EF000E40DA0306407840083138001840A8001FC
:102F0000840A8001840A80010310420DE40003104A
:102F1000E40DC8306407840083138001840A8001B3
:102F2000840A8001840A8001C20A0A3042028A119E
:102F30000A16031D742F00308A150A120F228312FD
:102F400003132008DC002108DD0001308A150A1275
:102F50000F22831203132008DE002108DF0003176D
:102F6000EE0101308A110A128B228A110A164726B5
:102F7000193083120317E800E9018A110A12E321CC
:102F80008A110A12982A6408831690008312650831
:102F9000831691008A150A121D24831203176408F0
:102FA00065048A110A16031DD82F8A150A12E82B08
:102FB0008A150A12DE2B252783120317C1008316F8
:102FC00099019A018A150A12282383120317C20055
:102FD000EE0101308A110A128B2218308312031776
:102FE00042028A150A16031913288A11F926831634
:102FF0000317A901AA0118308A150A123E2384304A
:1030000083160317A7000230A8001430AD00AE01EC
:103010005430B60000304038B7008A110A127023CD
:103020008A150A166D280310410DD3000310D30D25
:10303000530AD700D80157088316990083125808FD
:1030400083169A000A12282383120317B200410A3A
:10305000D3000310410DD4005308E400E5018A15A4
:103060000A1265233530831203175407840083172F
:10307000831610088000840A110880008430A7009D
:103080000230A8000730AD00AE01C230B6000030FB
:103090004038B7008A110A12702384308312031754
:1030A000E4000230E5000130EE0083169401831243
:1030B00041088A110A123224843083160317A700AC
:1030C0000230A8000C30AD00AE017E30B6000030FA
:1030D0004038B7008A110A1270231E30831203177A
:1030E000E800E9018A110A12E3218A110A1657271A
:1030F000831203138A150A1608187E290130031754
:10310000B200831203138818882803176E108A28C8
:1031100003176E144908E4004A08E5000A120C235C
:1031200083120317C2006408C9006508CA00023090
:1031300042028A150A16031DD0280310410DD30040
:103140003630530784008317FF300002031DAB287D
:103150008403DC3000020319D0280318D0280310A0
:10316000410DD4000310410DD500353055078400C2
:10317000831700080313A000840A0008A10036305A
:103180000317540784008317031321088000840366
:10319000323020078000840A0318800A8A11F92639
:1031A000831203138A150A160819D92803176E10FB
:1031B000DB2803176E144B08E4004C08E5000A12E4
:1031C0000C2383120317C2006408CB006508CC00EF
:1031D000023042028A150A16031D21290310410DEF
:1031E000D300363053078400831703300002031DD9
:1031F000FC288403E830000203192129031C21293B
:103200000310410DD4000310410DD5003530550792
:103210008400831700080313A000840A0008A1009B
:1032200036300317540784008317031321088000E6
:103230008403323020028000840A031C80038A1138
:10324000F9268A110A16072300308A150A12592214
:10325000831203138A150A16201831290317D21373
:1032600033290317D217D21F8128FA30E800E90169
:1032700000300A1242228A110A16AD218312031766
:10328000EE0100308A110A128B2284308316031754
:10329000A7000230A8001430AD00AE013F30B600E8
:1032A00000304038B7008A110A12702303108312CD
:1032B0000317410DD900843083169000023091002D
:1032C0003530831259078400831700088316940051
:1032D000840A000895000330A10005308A110A1203
:1032E000BD24203083120313A0008A110A12842205
:1032F0008A110A1647268A150A16812800300A12F2
:103300005922831203138A150A1620188A290317D3
:10331000D1118C290317D115D11DA429FA30E80049
:10332000E90100300A1242228A110A16AD218A11DF
:103330000A16252783120317C20041028A150A16AE
:103340000319A4298A11572701308A150A12592214
:10335000831203138A150A162018B1290317D112F4
:10336000B3290317D116D11E7A2B6430E800E90186
:1033700001300A1242228A110A16072378098312A1
:103380000317DA001530DA0703105A0DDB000313B8
:10339000AA00AB01AC01AD01AE0103172E08031367
:1033A000A00003172F080313A1000317300803130D
:1033B000A200031731080313A300A4018A110A1203
:1033C0000521831203132F080317D70003133008B6
:1033D0000317D80032088A150A16031D282A570831
:1033E0000313AA00031758080313AB00AC01AD0187
:1033F000AE016C08A0006D08A1006E08A2006F0865
:10340000A300A4018A110A120521831203132F08B5
:103410000317D30057080313AA0003175808031310
:10342000AB00AC01AD01AE017008A0007108A100B5
:103430007208A2007308A300A4018A110A120521D0
:10344000831203132F080317D6008A150A16DB2AE6
:103450003203031D742A57080313AA0003175808E0
:103460000313AB00AC01AD01AE0103171408031345
:10347000A000031715080313A10003171608031370
:10348000A200031717080313A300A4018A110A124C
:103490000521831203132F080317D30057080313C2
:1034A000AA00031758080313AB00AC01AD01AE012D
:1034B000031718080313A000031719080313A1002A
:1034C00003171A080313A20003171B080313A30012
:1034D000A4018A110A120521831203132F0803176E
:1034E000D6008A150A16DB2A02303202031DDB2AB7
:1034F0002D08DB0064302C02DA00031CDB035B08C0
:103500003402031D852A5A0833020319892A031835
:10351000912A7809DC001530DC0703105C0DD60019
:10352000D92A7809DA001530DA0703105A0DDB00C2
:103530000313AA00AB01AC01AD01AE0103173308C0
:103540000313A000031734080313A100A201A30171
:10355000A4018A110A120521831203132F080317ED
:10356000D700031330080317D8002D08DB006430A0
:103570002C02DA00031CDB0357080313AA0003170D
:1035800058080313AB00AC01AD01AE0103175A0894
:103590000313A00003175B080313A100A201A301FA
:1035A000A4018A110A120521831203132F0803179D
:1035B000D6005608D30053088A150A16031DE22ABE
:1035C0000130D3005608031DE72A0130D600DD0183
:1035D000DE017808EE005D088A110A128B22780954
:1035E00083120317E2001530E207E3018A150A1679
:1035F000742BDF01E0010230DE0702305E02E100E1
:10360000530861020319082B0318082B0130DF004F
:1036100053085E0203190E2B0318102B0230DF0033
:10362000560861020319182B0318182B0130E0000B
:1036300056085E0203191E2B0318202B0230E000EF
:1036400003105F0DE1000310E10D6008E107610860
:10365000031D332B20300313A0008A110A12842289
:103660008A150A16712B04306102031D402B0130AC
:103670000313A0008A110A1284228A150A16712BDC
:1036800005306102031D4D2B02300313A0008A1187
:103690000A1284228A150A16712B08306102031D52
:1036A0005A2B03300313A0008A110A1284228A15B0
:1036B0000A16712B09306102031D672B04300313B6
:1036C000A0008A110A1284228A150A16712B0A3068
:1036D0006102031D712B05300313A0008A110A1229
:1036E000842283120317E30A630862028A150A160A
:1036F000031DF92A03130818802B03176E10822B61
:1037000003176E144708E4004808E5000A12ED228A
:1037100083120317C5006408C7006508C80002309B
:1037200045028A150A16031D9C2B02303202031D26
:103730009B2BB2019C2BB20A03138819A22B0317EF
:103740006E10A42B03176E144D08E4004E08E5001C
:103750000A120C2383120317C2006408CD00650807
:10376000CE00023042028A150A16031DC92B7A16B2
:103770007A080313880007300317E400E5018A1173
:103780000A12B6217A127A088312031388000317EB
:10379000511503138A150A16881AD12B03176E10B8
:1037A000D32B03176E144F08E4005008E5000A12EB
:1037B0000C2383120317C2006408CF006508D000F1
:1037C000023042028A150A16031DEC2B7A177A087A
:1037D000031388000317511503304202031DF82B11
:1037E0007A137A080313880003175111C301C40127
:1037F000511D562C64300313AA00AB01AC01AD017E
:10380000AE01031714080313A000031715080313D0
:10381000A100031716080313A200031717080313C8
:10382000A300A4018A110A120521831203132F0891
:103830000317C2000A30420252118A150A160319F0
:10384000232C031C521543084404D2150319D2112A
:1038500052165219D21D5212521E322CC303430A61
:103860000319C4030F304202D2120319392C031872
:10387000D21603304402031D3F2CFC304302521386
:103880000319442C031C5217D217D21A521FD213F9
:10389000D21F4D2CC30A0319C40A4308E40044088C
:1038A000E5008A11C3278A150A16622C43084404CE
:1038B0000319622CC301C4014308E4004408E50075
:1038C0008A11C3278312031752118A150A12D624AC
:1038D00083120317D30003138A150A162018732CBA
:1038E00003175211752C0317521552125219521602
:1038F0000D305302D2120319D2165217521AD21E89
:103900005213521F7E29F2308316A7000C30A800F4
:10391000831203136C0883160317AD00831203137D
:103920006D0883160317AE00831203136E08831607
:103930000317AF00831203136F0883160317B00039
:103940000330BF0006308A110A12E0253A30831294
:103950000313A0008A150A12F224F230831603170B
:10396000A7000C30A8007008AD007108AE00720806
:10397000AF007308B0000330BF0006308A110A128E
:10398000E0253A3083120313A0008A150A12F224AC
:10399000F23083160317A7000C30A8008312140816
:1039A0008316AD00831215088316AE008312160825
:1039B0008316AF00831217088316B0000330BF00D0
:1039C00006308A110A12E0253A3083120313A00050
:1039D0008A150A12F224F23083160317A7000C305E
:1039E000A800831218088316AD00831219088316E5
:1039F000AE0083121A088316AF0083121B088316C9
:103A0000B0000330BF0006308A110A12E0253A30B8
:103A100083120313A0008A150A12F224F2308316CF
:103A20000317A7000C30A800831224088316AD00EA
:103A3000831225088316AE00831226088316AF0072
:103A4000831227088316B0000330BF0006308A11A6
:103A50000A12E0253A3083120313A0008A150A12D5
:103A6000F224F23083160317A7000C30A80083124B
:103A700028088316AD00831229088316AE0083122E
:103A80002A088316AF0083122B088316B000033078
:103A9000BF0006308A110A12E0253A308312031360
:103AA000A0008A150A12F224F23083160317900040
:103AB0000C30910083122C088316940083122D0879
:103AC000831695000230A10004308A110A12BD2429
:103AD0000A3083120313A0008A150A12F2248A15F1
:043AE0000A167E291B
:02400E00F22F8F
:02401000FF3F70
:00000001FF
